{
  "_format": "hh-sol-artifact-1",
  "contractName": "PubkeyRouter",
  "sourceName": "contracts/PubkeyRouter.sol",
  "abi": [
    {
      "inputs": [
        {
          "internalType": "address",
          "name": "_pkpNft",
          "type": "address"
        }
      ],
      "stateMutability": "nonpayable",
      "type": "constructor"
    },
    {
      "anonymous": false,
      "inputs": [
        {
          "indexed": false,
          "internalType": "address",
          "name": "newPkpNftAddress",
          "type": "address"
        }
      ],
      "name": "PkpNftAddressSet",
      "type": "event"
    },
    {
      "anonymous": false,
      "inputs": [
        {
          "indexed": true,
          "internalType": "uint256",
          "name": "tokenId",
          "type": "uint256"
        },
        {
          "indexed": false,
          "internalType": "bytes",
          "name": "pubkey",
          "type": "bytes"
        },
        {
          "indexed": false,
          "internalType": "address",
          "name": "stakingContract",
          "type": "address"
        },
        {
          "indexed": false,
          "internalType": "uint256",
          "name": "keyType",
          "type": "uint256"
        }
      ],
      "name": "PubkeyRoutingDataSet",
      "type": "event"
    },
    {
      "anonymous": false,
      "inputs": [
        {
          "indexed": true,
          "internalType": "bytes32",
          "name": "role",
          "type": "bytes32"
        },
        {
          "indexed": true,
          "internalType": "bytes32",
          "name": "previousAdminRole",
          "type": "bytes32"
        },
        {
          "indexed": true,
          "internalType": "bytes32",
          "name": "newAdminRole",
          "type": "bytes32"
        }
      ],
      "name": "RoleAdminChanged",
      "type": "event"
    },
    {
      "anonymous": false,
      "inputs": [
        {
          "indexed": true,
          "internalType": "bytes32",
          "name": "role",
          "type": "bytes32"
        },
        {
          "indexed": true,
          "internalType": "address",
          "name": "account",
          "type": "address"
        },
        {
          "indexed": true,
          "internalType": "address",
          "name": "sender",
          "type": "address"
        }
      ],
      "name": "RoleGranted",
      "type": "event"
    },
    {
      "anonymous": false,
      "inputs": [
        {
          "indexed": true,
          "internalType": "bytes32",
          "name": "role",
          "type": "bytes32"
        },
        {
          "indexed": true,
          "internalType": "address",
          "name": "account",
          "type": "address"
        },
        {
          "indexed": true,
          "internalType": "address",
          "name": "sender",
          "type": "address"
        }
      ],
      "name": "RoleRevoked",
      "type": "event"
    },
    {
      "inputs": [],
      "name": "ADMIN_ROLE",
      "outputs": [
        {
          "internalType": "bytes32",
          "name": "",
          "type": "bytes32"
        }
      ],
      "stateMutability": "view",
      "type": "function"
    },
    {
      "inputs": [],
      "name": "DEFAULT_ADMIN_ROLE",
      "outputs": [
        {
          "internalType": "bytes32",
          "name": "",
          "type": "bytes32"
        }
      ],
      "stateMutability": "view",
      "type": "function"
    },
    {
      "inputs": [],
      "name": "ROUTER_ROLE",
      "outputs": [
        {
          "internalType": "bytes32",
          "name": "",
          "type": "bytes32"
        }
      ],
      "stateMutability": "view",
      "type": "function"
    },
    {
      "inputs": [
        {
          "internalType": "bytes",
          "name": "pubkey",
          "type": "bytes"
        }
      ],
      "name": "deriveEthAddressFromPubkey",
      "outputs": [
        {
          "internalType": "address",
          "name": "",
          "type": "address"
        }
      ],
      "stateMutability": "pure",
      "type": "function"
    },
    {
      "inputs": [
        {
          "internalType": "address",
          "name": "",
          "type": "address"
        }
      ],
      "name": "ethAddressToPkpId",
      "outputs": [
        {
          "internalType": "uint256",
          "name": "",
          "type": "uint256"
        }
      ],
      "stateMutability": "view",
      "type": "function"
    },
    {
      "inputs": [
        {
          "internalType": "uint256",
          "name": "tokenId",
          "type": "uint256"
        }
      ],
      "name": "getEthAddress",
      "outputs": [
        {
          "internalType": "address",
          "name": "",
          "type": "address"
        }
      ],
      "stateMutability": "view",
      "type": "function"
    },
    {
      "inputs": [
        {
          "internalType": "uint256",
          "name": "tokenId",
          "type": "uint256"
        }
      ],
      "name": "getPubkey",
      "outputs": [
        {
          "internalType": "bytes",
          "name": "",
          "type": "bytes"
        }
      ],
      "stateMutability": "view",
      "type": "function"
    },
    {
      "inputs": [
        {
          "internalType": "bytes32",
          "name": "role",
          "type": "bytes32"
        }
      ],
      "name": "getRoleAdmin",
      "outputs": [
        {
          "internalType": "bytes32",
          "name": "",
          "type": "bytes32"
        }
      ],
      "stateMutability": "view",
      "type": "function"
    },
    {
      "inputs": [
        {
          "internalType": "uint256",
          "name": "tokenId",
          "type": "uint256"
        }
      ],
      "name": "getRoutingData",
      "outputs": [
        {
          "components": [
            {
              "internalType": "bytes",
              "name": "pubkey",
              "type": "bytes"
            },
            {
              "internalType": "address",
              "name": "stakingContract",
              "type": "address"
            },
            {
              "internalType": "uint256",
              "name": "keyType",
              "type": "uint256"
            }
          ],
          "internalType": "struct PubkeyRouter.PubkeyRoutingData",
          "name": "",
          "type": "tuple"
        }
      ],
      "stateMutability": "view",
      "type": "function"
    },
    {
      "inputs": [
        {
          "internalType": "bytes32",
          "name": "role",
          "type": "bytes32"
        },
        {
          "internalType": "address",
          "name": "account",
          "type": "address"
        }
      ],
      "name": "grantRole",
      "outputs": [],
      "stateMutability": "nonpayable",
      "type": "function"
    },
    {
      "inputs": [
        {
          "internalType": "bytes32",
          "name": "role",
          "type": "bytes32"
        },
        {
          "internalType": "address",
          "name": "account",
          "type": "address"
        }
      ],
      "name": "hasRole",
      "outputs": [
        {
          "internalType": "bool",
          "name": "",
          "type": "bool"
        }
      ],
      "stateMutability": "view",
      "type": "function"
    },
    {
      "inputs": [
        {
          "internalType": "uint256",
          "name": "tokenId",
          "type": "uint256"
        }
      ],
      "name": "isRouted",
      "outputs": [
        {
          "internalType": "bool",
          "name": "",
          "type": "bool"
        }
      ],
      "stateMutability": "view",
      "type": "function"
    },
    {
      "inputs": [],
      "name": "pkpNFT",
      "outputs": [
        {
          "internalType": "contract PKPNFT",
          "name": "",
          "type": "address"
        }
      ],
      "stateMutability": "view",
      "type": "function"
    },
    {
      "inputs": [
        {
          "internalType": "uint256",
          "name": "",
          "type": "uint256"
        }
      ],
      "name": "pubkeys",
      "outputs": [
        {
          "internalType": "bytes",
          "name": "pubkey",
          "type": "bytes"
        },
        {
          "internalType": "address",
          "name": "stakingContract",
          "type": "address"
        },
        {
          "internalType": "uint256",
          "name": "keyType",
          "type": "uint256"
        }
      ],
      "stateMutability": "view",
      "type": "function"
    },
    {
      "inputs": [
        {
          "internalType": "bytes32",
          "name": "role",
          "type": "bytes32"
        },
        {
          "internalType": "address",
          "name": "account",
          "type": "address"
        }
      ],
      "name": "renounceRole",
      "outputs": [],
      "stateMutability": "nonpayable",
      "type": "function"
    },
    {
      "inputs": [
        {
          "internalType": "bytes32",
          "name": "role",
          "type": "bytes32"
        },
        {
          "internalType": "address",
          "name": "account",
          "type": "address"
        }
      ],
      "name": "revokeRole",
      "outputs": [],
      "stateMutability": "nonpayable",
      "type": "function"
    },
    {
      "inputs": [
        {
          "internalType": "address",
          "name": "newPkpNftAddress",
          "type": "address"
        }
      ],
      "name": "setPkpNftAddress",
      "outputs": [],
      "stateMutability": "nonpayable",
      "type": "function"
    },
    {
      "inputs": [
        {
          "internalType": "uint256",
          "name": "tokenId",
          "type": "uint256"
        },
        {
          "internalType": "bytes",
          "name": "pubkey",
          "type": "bytes"
        },
        {
          "internalType": "address",
          "name": "stakingContractAddress",
          "type": "address"
        },
        {
          "internalType": "uint256",
          "name": "keyType",
          "type": "uint256"
        },
        {
          "components": [
            {
              "internalType": "bytes32",
              "name": "r",
              "type": "bytes32"
            },
            {
              "internalType": "bytes32",
              "name": "s",
              "type": "bytes32"
            },
            {
              "internalType": "uint8",
              "name": "v",
              "type": "uint8"
            }
          ],
          "internalType": "struct PubkeyRouter.Signature[]",
          "name": "signatures",
          "type": "tuple[]"
        }
      ],
      "name": "setRoutingData",
      "outputs": [],
      "stateMutability": "nonpayable",
      "type": "function"
    },
    {
      "inputs": [
        {
          "internalType": "uint256",
          "name": "tokenId",
          "type": "uint256"
        },
        {
          "internalType": "bytes",
          "name": "pubkey",
          "type": "bytes"
        },
        {
          "internalType": "address",
          "name": "stakingContract",
          "type": "address"
        },
        {
          "internalType": "uint256",
          "name": "keyType",
          "type": "uint256"
        }
      ],
      "name": "setRoutingDataAsAdmin",
      "outputs": [],
      "stateMutability": "nonpayable",
      "type": "function"
    },
    {
      "inputs": [
        {
          "internalType": "uint256[]",
          "name": "tokenIds",
          "type": "uint256[]"
        },
        {
          "internalType": "bytes[]",
          "name": "_pubkeys",
          "type": "bytes[]"
        },
        {
          "internalType": "address",
          "name": "stakingContract",
          "type": "address"
        },
        {
          "internalType": "uint256",
          "name": "keyType",
          "type": "uint256"
        },
        {
          "components": [
            {
              "internalType": "bytes32",
              "name": "r",
              "type": "bytes32"
            },
            {
              "internalType": "bytes32",
              "name": "s",
              "type": "bytes32"
            },
            {
              "internalType": "uint8",
              "name": "v",
              "type": "uint8"
            }
          ],
          "internalType": "struct PubkeyRouter.Signature[][]",
          "name": "signatures",
          "type": "tuple[][]"
        }
      ],
      "name": "setRoutingDataBatch",
      "outputs": [],
      "stateMutability": "nonpayable",
      "type": "function"
    },
    {
      "inputs": [
        {
          "internalType": "bytes4",
          "name": "interfaceId",
          "type": "bytes4"
        }
      ],
      "name": "supportsInterface",
      "outputs": [
        {
          "internalType": "bool",
          "name": "",
          "type": "bool"
        }
      ],
      "stateMutability": "view",
      "type": "function"
    }
  ],
  "bytecode": "0x60806040523480156200001157600080fd5b506040516200403d3803806200403d8339818101604052810190620000379190620003b6565b80600160006101000a81548173ffffffffffffffffffffffffffffffffffffffff021916908373ffffffffffffffffffffffffffffffffffffffff160217905550620000aa7fdf8b4c520ffe197c5343c6f5aec59570151ef9a492f2c624fd45ddde6135ec42336200016760201b60201c565b620000dc7feb4fd9f47c063b511700e1c8e94e2fa4088ffca1fdcef1e60edf1beecd1b2e64336200016760201b60201c565b6200010e7fdf8b4c520ffe197c5343c6f5aec59570151ef9a492f2c624fd45ddde6135ec42806200025860201b60201c565b620001607feb4fd9f47c063b511700e1c8e94e2fa4088ffca1fdcef1e60edf1beecd1b2e647fdf8b4c520ffe197c5343c6f5aec59570151ef9a492f2c624fd45ddde6135ec426200025860201b60201c565b50620003e8565b620001798282620002bb60201b60201c565b6200025457600160008084815260200190815260200160002060000160008373ffffffffffffffffffffffffffffffffffffffff1673ffffffffffffffffffffffffffffffffffffffff16815260200190815260200160002060006101000a81548160ff021916908315150217905550620001f96200032560201b60201c565b73ffffffffffffffffffffffffffffffffffffffff168173ffffffffffffffffffffffffffffffffffffffff16837f2f8788117e7eff1d82e926ec794901d17c78024a50270940304540a733656f0d60405160405180910390a45b5050565b60006200026b836200032d60201b60201c565b905081600080858152602001908152602001600020600101819055508181847fbd79b86ffe0ab8e8776151514217cd7cacd52c909f66475c3af44e129f0b00ff60405160405180910390a4505050565b600080600084815260200190815260200160002060000160008373ffffffffffffffffffffffffffffffffffffffff1673ffffffffffffffffffffffffffffffffffffffff16815260200190815260200160002060009054906101000a900460ff16905092915050565b600033905090565b6000806000838152602001908152602001600020600101549050919050565b600080fd5b600073ffffffffffffffffffffffffffffffffffffffff82169050919050565b60006200037e8262000351565b9050919050565b620003908162000371565b81146200039c57600080fd5b50565b600081519050620003b08162000385565b92915050565b600060208284031215620003cf57620003ce6200034c565b5b6000620003df848285016200039f565b91505092915050565b613c4580620003f86000396000f3fe608060405234801561001057600080fd5b50600436106101375760003560e01c806375b238fc116100b8578063c5a6feaf1161007c578063c5a6feaf14610374578063cc609d2714610390578063d547741f146103c0578063de18a508146103dc578063ef6fd8781461040c578063ffa2e9531461043c57610137565b806375b238fc146102a65780637bd3e3f6146102c457806391d14854146102f6578063a217fddf14610326578063bd4986a01461034457610137565b806328ce247e116100ff57806328ce247e146102185780632f2ff15d1461023457806330d643b51461025057806336568abe1461026e57806375689fdf1461028a57610137565b806301c6d0351461013c57806301ffc9a71461016c578063176354fd1461019c578063248a9ca3146101b857806325c836f9146101e8575b600080fd5b61015660048036038101906101519190611f94565b61045a565b6040516101639190611fdc565b60405180910390f35b6101866004803603810190610181919061204f565b6105cf565b6040516101939190611fdc565b60405180910390f35b6101b660048036038101906101b191906120da565b610649565b005b6101d260048036038101906101cd919061213d565b61072d565b6040516101df9190612179565b60405180910390f35b61020260048036038101906101fd9190611f94565b61074c565b60405161020f9190612292565b60405180910390f35b610232600480360381019061022d91906127d8565b61086b565b005b61024e600480360381019061024991906128a7565b61093e565b005b61025861095f565b6040516102659190612179565b60405180910390f35b610288600480360381019061028391906128a7565b610983565b005b6102a4600480360381019061029f91906128e7565b610a06565b005b6102ae610c2f565b6040516102bb9190612179565b60405180910390f35b6102de60048036038101906102d99190611f94565b610c53565b6040516102ed939291906129d2565b60405180910390f35b610310600480360381019061030b91906128a7565b610d25565b60405161031d9190611fdc565b60405180910390f35b61032e610d8f565b60405161033b9190612179565b60405180910390f35b61035e60048036038101906103599190611f94565b610d96565b60405161036b9190612a10565b60405180910390f35b61038e60048036038101906103899190612a2b565b610e6d565b005b6103aa60048036038101906103a59190612ade565b611301565b6040516103b79190612a10565b60405180910390f35b6103da60048036038101906103d591906128a7565b611330565b005b6103f660048036038101906103f191906120da565b611351565b6040516104039190612b27565b60405180910390f35b61042660048036038101906104219190611f94565b611369565b6040516104339190612b42565b60405180910390f35b610444611411565b6040516104519190612bc3565b60405180910390f35b6000806002600084815260200190815260200160002060405180606001604052908160008201805461048b90612c0d565b80601f01602080910402602001604051908101604052809291908181526020018280546104b790612c0d565b80156105045780601f106104d957610100808354040283529160200191610504565b820191906000526020600020905b8154815290600101906020018083116104e757829003601f168201915b505050505081526020016001820160009054906101000a900473ffffffffffffffffffffffffffffffffffffffff1673ffffffffffffffffffffffffffffffffffffffff1673ffffffffffffffffffffffffffffffffffffffff168152602001600282015481525050905060008160000151511415801561058a57506000816040015114155b80156105c75750600073ffffffffffffffffffffffffffffffffffffffff16816020015173ffffffffffffffffffffffffffffffffffffffff1614155b915050919050565b60007f7965db0b000000000000000000000000000000000000000000000000000000007bffffffffffffffffffffffffffffffffffffffffffffffffffffffff1916827bffffffffffffffffffffffffffffffffffffffffffffffffffffffff19161480610642575061064182611437565b5b9050919050565b6106737fdf8b4c520ffe197c5343c6f5aec59570151ef9a492f2c624fd45ddde6135ec4233610d25565b6106b2576040517f08c379a00000000000000000000000000000000000000000000000000000000081526004016106a990612cc1565b60405180910390fd5b80600160006101000a81548173ffffffffffffffffffffffffffffffffffffffff021916908373ffffffffffffffffffffffffffffffffffffffff1602179055507fc7ff7959ecbc7f4d8d4a9e6afe9dff66f0e84d0707ee870524fe965872ab6e50816040516107229190612a10565b60405180910390a150565b6000806000838152602001908152602001600020600101549050919050565b610754611f13565b6002600083815260200190815260200160002060405180606001604052908160008201805461078290612c0d565b80601f01602080910402602001604051908101604052809291908181526020018280546107ae90612c0d565b80156107fb5780601f106107d0576101008083540402835291602001916107fb565b820191906000526020600020905b8154815290600101906020018083116107de57829003601f168201915b505050505081526020016001820160009054906101000a900473ffffffffffffffffffffffffffffffffffffffff1673ffffffffffffffffffffffffffffffffffffffff1673ffffffffffffffffffffffffffffffffffffffff1681526020016002820154815250509050919050565b8351855114801561087d575080518551145b6108bc576040517f08c379a00000000000000000000000000000000000000000000000000000000081526004016108b390612d53565b60405180910390fd5b60005b8551811015610936576109238682815181106108de576108dd612d73565b5b60200260200101518683815181106108f9576108f8612d73565b5b6020026020010151868686868151811061091657610915612d73565b5b6020026020010151610e6d565b808061092e90612dd1565b9150506108bf565b505050505050565b6109478261072d565b610950816114a1565b61095a83836114b5565b505050565b7feb4fd9f47c063b511700e1c8e94e2fa4088ffca1fdcef1e60edf1beecd1b2e6481565b61098b611595565b73ffffffffffffffffffffffffffffffffffffffff168173ffffffffffffffffffffffffffffffffffffffff16146109f8576040517f08c379a00000000000000000000000000000000000000000000000000000000081526004016109ef90612e8b565b60405180910390fd5b610a02828261159d565b5050565b610a307fdf8b4c520ffe197c5343c6f5aec59570151ef9a492f2c624fd45ddde6135ec4233610d25565b610a6f576040517f08c379a0000000000000000000000000000000000000000000000000000000008152600401610a6690612cc1565b60405180910390fd5b82600260008681526020019081526020016000206000019081610a92919061304d565b50816002600086815260200190815260200160002060010160006101000a81548173ffffffffffffffffffffffffffffffffffffffff021916908373ffffffffffffffffffffffffffffffffffffffff16021790555080600260008681526020019081526020016000206002018190555060028103610b5e576000610b1684611301565b905084600360008373ffffffffffffffffffffffffffffffffffffffff1673ffffffffffffffffffffffffffffffffffffffff16815260200190815260200160002081905550505b600160009054906101000a900473ffffffffffffffffffffffffffffffffffffffff1673ffffffffffffffffffffffffffffffffffffffff16635c110a9c85836040518363ffffffff1660e01b8152600401610bbb92919061311f565b600060405180830381600087803b158015610bd557600080fd5b505af1158015610be9573d6000803e3d6000fd5b50505050837f5c4ca40b0470d7d59d8b59dfbd57d9a2e50a8f0b84d22521c146b646274e1a38848484604051610c21939291906129d2565b60405180910390a250505050565b7fdf8b4c520ffe197c5343c6f5aec59570151ef9a492f2c624fd45ddde6135ec4281565b6002602052806000526040600020600091509050806000018054610c7690612c0d565b80601f0160208091040260200160405190810160405280929190818152602001828054610ca290612c0d565b8015610cef5780601f10610cc457610100808354040283529160200191610cef565b820191906000526020600020905b815481529060010190602001808311610cd257829003601f168201915b5050505050908060010160009054906101000a900473ffffffffffffffffffffffffffffffffffffffff16908060020154905083565b600080600084815260200190815260200160002060000160008373ffffffffffffffffffffffffffffffffffffffff1673ffffffffffffffffffffffffffffffffffffffff16815260200190815260200160002060009054906101000a900460ff16905092915050565b6000801b81565b600060028060008481526020019081526020016000206002015414610dbe5760009050610e68565b610e65600260008481526020019081526020016000206000018054610de290612c0d565b80601f0160208091040260200160405190810160405280929190818152602001828054610e0e90612c0d565b8015610e5b5780601f10610e3057610100808354040283529160200191610e5b565b820191906000526020600020905b815481529060010190602001808311610e3e57829003601f168201915b5050505050611301565b90505b919050565b610e977feb4fd9f47c063b511700e1c8e94e2fa4088ffca1fdcef1e60edf1beecd1b2e6433610d25565b610ed6576040517f08c379a0000000000000000000000000000000000000000000000000000000008152600401610ecd906131ba565b60405180910390fd5b60008390508073ffffffffffffffffffffffffffffffffffffffff1663d4818fca6040518163ffffffff1660e01b8152600401602060405180830381865afa158015610f26573d6000803e3d6000fd5b505050506040513d601f19601f82011682018060405250810190610f4a91906131ef565b825114610f8c576040517f08c379a0000000000000000000000000000000000000000000000000000000008152600401610f839061328e565b60405180910390fd5b848051906020012060001c8614610fd8576040517f08c379a0000000000000000000000000000000000000000000000000000000008152600401610fcf90613320565b60405180910390fd5b610fe18661045a565b15611021576040517f08c379a0000000000000000000000000000000000000000000000000000000008152600401611018906133b2565b60405180910390fd5b60005b825181101561113e57600083828151811061104257611041612d73565b5b60200260200101519050600061106e61105a8961167e565b8360400151846000015185602001516116b9565b90508373ffffffffffffffffffffffffffffffffffffffff1663a25e49a4826040518263ffffffff1660e01b81526004016110a99190612a10565b602060405180830381865afa1580156110c6573d6000803e3d6000fd5b505050506040513d601f19601f820116820180604052508101906110ea91906133fe565b611129576040517f08c379a00000000000000000000000000000000000000000000000000000000081526004016111209061349d565b60405180910390fd5b5050808061113690612dd1565b915050611024565b5084600260008881526020019081526020016000206000019081611162919061304d565b50836002600088815260200190815260200160002060010160006101000a81548173ffffffffffffffffffffffffffffffffffffffff021916908373ffffffffffffffffffffffffffffffffffffffff1602179055508260026000888152602001908152602001600020600201819055506002830361122e5760006111e686611301565b905086600360008373ffffffffffffffffffffffffffffffffffffffff1673ffffffffffffffffffffffffffffffffffffffff16815260200190815260200160002081905550505b600160009054906101000a900473ffffffffffffffffffffffffffffffffffffffff1673ffffffffffffffffffffffffffffffffffffffff16635c110a9c87856040518363ffffffff1660e01b815260040161128b92919061311f565b600060405180830381600087803b1580156112a557600080fd5b505af11580156112b9573d6000803e3d6000fd5b50505050857f5c4ca40b0470d7d59d8b59dfbd57d9a2e50a8f0b84d22521c146b646274e1a388686866040516112f1939291906129d2565b60405180910390a2505050505050565b60008061131b60016040856116e49092919063ffffffff16565b8051906020012090508060001c915050919050565b6113398261072d565b611342816114a1565b61134c838361159d565b505050565b60036020528060005260406000206000915090505481565b606060026000838152602001908152602001600020600001805461138c90612c0d565b80601f01602080910402602001604051908101604052809291908181526020018280546113b890612c0d565b80156114055780601f106113da57610100808354040283529160200191611405565b820191906000526020600020905b8154815290600101906020018083116113e857829003601f168201915b50505050509050919050565b600160009054906101000a900473ffffffffffffffffffffffffffffffffffffffff1681565b60007f01ffc9a7000000000000000000000000000000000000000000000000000000007bffffffffffffffffffffffffffffffffffffffffffffffffffffffff1916827bffffffffffffffffffffffffffffffffffffffffffffffffffffffff1916149050919050565b6114b2816114ad611595565b611802565b50565b6114bf8282610d25565b61159157600160008084815260200190815260200160002060000160008373ffffffffffffffffffffffffffffffffffffffff1673ffffffffffffffffffffffffffffffffffffffff16815260200190815260200160002060006101000a81548160ff021916908315150217905550611536611595565b73ffffffffffffffffffffffffffffffffffffffff168173ffffffffffffffffffffffffffffffffffffffff16837f2f8788117e7eff1d82e926ec794901d17c78024a50270940304540a733656f0d60405160405180910390a45b5050565b600033905090565b6115a78282610d25565b1561167a57600080600084815260200190815260200160002060000160008373ffffffffffffffffffffffffffffffffffffffff1673ffffffffffffffffffffffffffffffffffffffff16815260200190815260200160002060006101000a81548160ff02191690831515021790555061161f611595565b73ffffffffffffffffffffffffffffffffffffffff168173ffffffffffffffffffffffffffffffffffffffff16837ff6391f5c32d9c69d2a47ea670b442974b53935d1edc7fd64eb21e047a839171b60405160405180910390a45b5050565b600061168a825161189f565b8260405160200161169c92919061358c565b604051602081830303815290604052805190602001209050919050565b60008060006116ca878787876119ff565b915091506116d781611b0b565b8192505050949350505050565b606081601f836116f491906135bb565b1015611735576040517f08c379a000000000000000000000000000000000000000000000000000000000815260040161172c9061363b565b60405180910390fd5b818361174191906135bb565b84511015611784576040517f08c379a000000000000000000000000000000000000000000000000000000000815260040161177b906136a7565b60405180910390fd5b60608215600081146117a557604051915060008252602082016040526117f6565b6040519150601f8416801560200281840101858101878315602002848b0101015b818310156117e357805183526020830192506020810190506117c6565b50868552601f19601f8301166040525050505b50809150509392505050565b61180c8282610d25565b61189b576118318173ffffffffffffffffffffffffffffffffffffffff166014611cd7565b61183f8360001c6020611cd7565b60405160200161185092919061375f565b6040516020818303038152906040526040517f08c379a000000000000000000000000000000000000000000000000000000000815260040161189291906137d2565b60405180910390fd5b5050565b6060600082036118e6576040518060400160405280600181526020017f300000000000000000000000000000000000000000000000000000000000000081525090506119fa565b600082905060005b6000821461191857808061190190612dd1565b915050600a826119119190613823565b91506118ee565b60008167ffffffffffffffff811115611934576119336122b9565b5b6040519080825280601f01601f1916602001820160405280156119665781602001600182028036833780820191505090505b5090505b600085146119f35760018261197f9190613854565b9150600a8561198e9190613888565b603061199a91906135bb565b60f81b8183815181106119b0576119af612d73565b5b60200101907effffffffffffffffffffffffffffffffffffffffffffffffffffffffffffff1916908160001a905350600a856119ec9190613823565b945061196a565b8093505050505b919050565b6000807f7fffffffffffffffffffffffffffffff5d576e7357a4501ddfe92f46681b20a08360001c1115611a3a576000600391509150611b02565b601b8560ff1614158015611a525750601c8560ff1614155b15611a64576000600491509150611b02565b600060018787878760405160008152602001604052604051611a8994939291906138c8565b6020604051602081039080840390855afa158015611aab573d6000803e3d6000fd5b505050602060405103519050600073ffffffffffffffffffffffffffffffffffffffff168173ffffffffffffffffffffffffffffffffffffffff1603611af957600060019250925050611b02565b80600092509250505b94509492505050565b60006004811115611b1f57611b1e61390d565b5b816004811115611b3257611b3161390d565b5b0315611cd45760016004811115611b4c57611b4b61390d565b5b816004811115611b5f57611b5e61390d565b5b03611b9f576040517f08c379a0000000000000000000000000000000000000000000000000000000008152600401611b9690613988565b60405180910390fd5b60026004811115611bb357611bb261390d565b5b816004811115611bc657611bc561390d565b5b03611c06576040517f08c379a0000000000000000000000000000000000000000000000000000000008152600401611bfd906139f4565b60405180910390fd5b60036004811115611c1a57611c1961390d565b5b816004811115611c2d57611c2c61390d565b5b03611c6d576040517f08c379a0000000000000000000000000000000000000000000000000000000008152600401611c6490613a86565b60405180910390fd5b600480811115611c8057611c7f61390d565b5b816004811115611c9357611c9261390d565b5b03611cd3576040517f08c379a0000000000000000000000000000000000000000000000000000000008152600401611cca90613b18565b60405180910390fd5b5b50565b606060006002836002611cea9190613b38565b611cf491906135bb565b67ffffffffffffffff811115611d0d57611d0c6122b9565b5b6040519080825280601f01601f191660200182016040528015611d3f5781602001600182028036833780820191505090505b5090507f300000000000000000000000000000000000000000000000000000000000000081600081518110611d7757611d76612d73565b5b60200101907effffffffffffffffffffffffffffffffffffffffffffffffffffffffffffff1916908160001a9053507f780000000000000000000000000000000000000000000000000000000000000081600181518110611ddb57611dda612d73565b5b60200101907effffffffffffffffffffffffffffffffffffffffffffffffffffffffffffff1916908160001a90535060006001846002611e1b9190613b38565b611e2591906135bb565b90505b6001811115611ec5577f3031323334353637383961626364656600000000000000000000000000000000600f861660108110611e6757611e66612d73565b5b1a60f81b828281518110611e7e57611e7d612d73565b5b60200101907effffffffffffffffffffffffffffffffffffffffffffffffffffffffffffff1916908160001a905350600485901c945080611ebe90613b7a565b9050611e28565b5060008414611f09576040517f08c379a0000000000000000000000000000000000000000000000000000000008152600401611f0090613bef565b60405180910390fd5b8091505092915050565b604051806060016040528060608152602001600073ffffffffffffffffffffffffffffffffffffffff168152602001600081525090565b6000604051905090565b600080fd5b600080fd5b6000819050919050565b611f7181611f5e565b8114611f7c57600080fd5b50565b600081359050611f8e81611f68565b92915050565b600060208284031215611faa57611fa9611f54565b5b6000611fb884828501611f7f565b91505092915050565b60008115159050919050565b611fd681611fc1565b82525050565b6000602082019050611ff16000830184611fcd565b92915050565b60007fffffffff0000000000000000000000000000000000000000000000000000000082169050919050565b61202c81611ff7565b811461203757600080fd5b50565b60008135905061204981612023565b92915050565b60006020828403121561206557612064611f54565b5b60006120738482850161203a565b91505092915050565b600073ffffffffffffffffffffffffffffffffffffffff82169050919050565b60006120a78261207c565b9050919050565b6120b78161209c565b81146120c257600080fd5b50565b6000813590506120d4816120ae565b92915050565b6000602082840312156120f0576120ef611f54565b5b60006120fe848285016120c5565b91505092915050565b6000819050919050565b61211a81612107565b811461212557600080fd5b50565b60008135905061213781612111565b92915050565b60006020828403121561215357612152611f54565b5b600061216184828501612128565b91505092915050565b61217381612107565b82525050565b600060208201905061218e600083018461216a565b92915050565b600081519050919050565b600082825260208201905092915050565b60005b838110156121ce5780820151818401526020810190506121b3565b60008484015250505050565b6000601f19601f8301169050919050565b60006121f682612194565b612200818561219f565b93506122108185602086016121b0565b612219816121da565b840191505092915050565b61222d8161209c565b82525050565b61223c81611f5e565b82525050565b6000606083016000830151848203600086015261225f82826121eb565b91505060208301516122746020860182612224565b5060408301516122876040860182612233565b508091505092915050565b600060208201905081810360008301526122ac8184612242565b905092915050565b600080fd5b7f4e487b7100000000000000000000000000000000000000000000000000000000600052604160045260246000fd5b6122f1826121da565b810181811067ffffffffffffffff821117156123105761230f6122b9565b5b80604052505050565b6000612323611f4a565b905061232f82826122e8565b919050565b600067ffffffffffffffff82111561234f5761234e6122b9565b5b602082029050602081019050919050565b600080fd5b600061237861237384612334565b612319565b9050808382526020820190506020840283018581111561239b5761239a612360565b5b835b818110156123c457806123b08882611f7f565b84526020840193505060208101905061239d565b5050509392505050565b600082601f8301126123e3576123e26122b4565b5b81356123f3848260208601612365565b91505092915050565b600067ffffffffffffffff821115612417576124166122b9565b5b602082029050602081019050919050565b600080fd5b600067ffffffffffffffff821115612448576124476122b9565b5b612451826121da565b9050602081019050919050565b82818337600083830152505050565b600061248061247b8461242d565b612319565b90508281526020810184848401111561249c5761249b612428565b5b6124a784828561245e565b509392505050565b600082601f8301126124c4576124c36122b4565b5b81356124d484826020860161246d565b91505092915050565b60006124f06124eb846123fc565b612319565b9050808382526020820190506020840283018581111561251357612512612360565b5b835b8181101561255a57803567ffffffffffffffff811115612538576125376122b4565b5b80860161254589826124af565b85526020850194505050602081019050612515565b5050509392505050565b600082601f830112612579576125786122b4565b5b81356125898482602086016124dd565b91505092915050565b600067ffffffffffffffff8211156125ad576125ac6122b9565b5b602082029050602081019050919050565b600067ffffffffffffffff8211156125d9576125d86122b9565b5b602082029050602081019050919050565b600080fd5b600060ff82169050919050565b612605816125ef565b811461261057600080fd5b50565b600081359050612622816125fc565b92915050565b60006060828403121561263e5761263d6125ea565b5b6126486060612319565b9050600061265884828501612128565b600083015250602061266c84828501612128565b602083015250604061268084828501612613565b60408301525092915050565b600061269f61269a846125be565b612319565b905080838252602082019050606084028301858111156126c2576126c1612360565b5b835b818110156126eb57806126d78882612628565b8452602084019350506060810190506126c4565b5050509392505050565b600082601f83011261270a576127096122b4565b5b813561271a84826020860161268c565b91505092915050565b600061273661273184612592565b612319565b9050808382526020820190506020840283018581111561275957612758612360565b5b835b818110156127a057803567ffffffffffffffff81111561277e5761277d6122b4565b5b80860161278b89826126f5565b8552602085019450505060208101905061275b565b5050509392505050565b600082601f8301126127bf576127be6122b4565b5b81356127cf848260208601612723565b91505092915050565b600080600080600060a086880312156127f4576127f3611f54565b5b600086013567ffffffffffffffff81111561281257612811611f59565b5b61281e888289016123ce565b955050602086013567ffffffffffffffff81111561283f5761283e611f59565b5b61284b88828901612564565b945050604061285c888289016120c5565b935050606061286d88828901611f7f565b925050608086013567ffffffffffffffff81111561288e5761288d611f59565b5b61289a888289016127aa565b9150509295509295909350565b600080604083850312156128be576128bd611f54565b5b60006128cc85828601612128565b92505060206128dd858286016120c5565b9150509250929050565b6000806000806080858703121561290157612900611f54565b5b600061290f87828801611f7f565b945050602085013567ffffffffffffffff8111156129305761292f611f59565b5b61293c878288016124af565b935050604061294d878288016120c5565b925050606061295e87828801611f7f565b91505092959194509250565b600082825260208201905092915050565b600061298682612194565b612990818561296a565b93506129a08185602086016121b0565b6129a9816121da565b840191505092915050565b6129bd8161209c565b82525050565b6129cc81611f5e565b82525050565b600060608201905081810360008301526129ec818661297b565b90506129fb60208301856129b4565b612a0860408301846129c3565b949350505050565b6000602082019050612a2560008301846129b4565b92915050565b600080600080600060a08688031215612a4757612a46611f54565b5b6000612a5588828901611f7f565b955050602086013567ffffffffffffffff811115612a7657612a75611f59565b5b612a82888289016124af565b9450506040612a93888289016120c5565b9350506060612aa488828901611f7f565b925050608086013567ffffffffffffffff811115612ac557612ac4611f59565b5b612ad1888289016126f5565b9150509295509295909350565b600060208284031215612af457612af3611f54565b5b600082013567ffffffffffffffff811115612b1257612b11611f59565b5b612b1e848285016124af565b91505092915050565b6000602082019050612b3c60008301846129c3565b92915050565b60006020820190508181036000830152612b5c818461297b565b905092915050565b6000819050919050565b6000612b89612b84612b7f8461207c565b612b64565b61207c565b9050919050565b6000612b9b82612b6e565b9050919050565b6000612bad82612b90565b9050919050565b612bbd81612ba2565b82525050565b6000602082019050612bd86000830184612bb4565b92915050565b7f4e487b7100000000000000000000000000000000000000000000000000000000600052602260045260246000fd5b60006002820490506001821680612c2557607f821691505b602082108103612c3857612c37612bde565b5b50919050565b600082825260208201905092915050565b7f5075626b6579526f757465723a206d75737420686176652061646d696e20726f60008201527f6c65000000000000000000000000000000000000000000000000000000000000602082015250565b6000612cab602283612c3e565b9150612cb682612c4f565b604082019050919050565b60006020820190508181036000830152612cda81612c9e565b9050919050565b7f5075626b6579526f757465723a20696e636f7272656374206e756d626572206f60008201527f6620617267756d656e7473000000000000000000000000000000000000000000602082015250565b6000612d3d602b83612c3e565b9150612d4882612ce1565b604082019050919050565b60006020820190508181036000830152612d6c81612d30565b9050919050565b7f4e487b7100000000000000000000000000000000000000000000000000000000600052603260045260246000fd5b7f4e487b7100000000000000000000000000000000000000000000000000000000600052601160045260246000fd5b6000612ddc82611f5e565b91507fffffffffffffffffffffffffffffffffffffffffffffffffffffffffffffffff8203612e0e57612e0d612da2565b5b600182019050919050565b7f416363657373436f6e74726f6c3a2063616e206f6e6c792072656e6f756e636560008201527f20726f6c657320666f722073656c660000000000000000000000000000000000602082015250565b6000612e75602f83612c3e565b9150612e8082612e19565b604082019050919050565b60006020820190508181036000830152612ea481612e68565b9050919050565b60008190508160005260206000209050919050565b60006020601f8301049050919050565b600082821b905092915050565b600060088302612f0d7fffffffffffffffffffffffffffffffffffffffffffffffffffffffffffffffff82612ed0565b612f178683612ed0565b95508019841693508086168417925050509392505050565b6000612f4a612f45612f4084611f5e565b612b64565b611f5e565b9050919050565b6000819050919050565b612f6483612f2f565b612f78612f7082612f51565b848454612edd565b825550505050565b600090565b612f8d612f80565b612f98818484612f5b565b505050565b5b81811015612fbc57612fb1600082612f85565b600181019050612f9e565b5050565b601f82111561300157612fd281612eab565b612fdb84612ec0565b81016020851015612fea578190505b612ffe612ff685612ec0565b830182612f9d565b50505b505050565b600082821c905092915050565b600061302460001984600802613006565b1980831691505092915050565b600061303d8383613013565b9150826002028217905092915050565b61305682612194565b67ffffffffffffffff81111561306f5761306e6122b9565b5b6130798254612c0d565b613084828285612fc0565b600060209050601f8311600181146130b757600084156130a5578287015190505b6130af8582613031565b865550613117565b601f1984166130c586612eab565b60005b828110156130ed578489015182556001820191506020850194506020810190506130c8565b8683101561310a5784890151613106601f891682613013565b8355505b6001600288020188555050505b505050505050565b600060408201905061313460008301856129c3565b61314160208301846129c3565b9392505050565b7f5075626b6579526f757465723a206d757374206861766520726f75746572207260008201527f6f6c650000000000000000000000000000000000000000000000000000000000602082015250565b60006131a4602383612c3e565b91506131af82613148565b604082019050919050565b600060208201905081810360008301526131d381613197565b9050919050565b6000815190506131e981611f68565b92915050565b60006020828403121561320557613204611f54565b5b6000613213848285016131da565b91505092915050565b7f5075626b6579526f757465723a20696e636f7272656374206e756d626572206f60008201527f66207369676e6174757265730000000000000000000000000000000000000000602082015250565b6000613278602c83612c3e565b91506132838261321c565b604082019050919050565b600060208201905081810360008301526132a78161326b565b9050919050565b7f746f6b656e496420646f6573206e6f74206d617463682068617368656420707560008201527f626b657900000000000000000000000000000000000000000000000000000000602082015250565b600061330a602483612c3e565b9150613315826132ae565b604082019050919050565b60006020820190508181036000830152613339816132fd565b9050919050565b7f5075626b6579526f757465723a207075626b657920616c72656164792068617360008201527f20726f7574696e67206461746100000000000000000000000000000000000000602082015250565b600061339c602d83612c3e565b91506133a782613340565b604082019050919050565b600060208201905081810360008301526133cb8161338f565b9050919050565b6133db81611fc1565b81146133e657600080fd5b50565b6000815190506133f8816133d2565b92915050565b60006020828403121561341457613413611f54565b5b6000613422848285016133e9565b91505092915050565b7f5075626b6579526f757465723a207369676e6572206973206e6f74206163746960008201527f76652076616c696461746f720000000000000000000000000000000000000000602082015250565b6000613487602c83612c3e565b91506134928261342b565b604082019050919050565b600060208201905081810360008301526134b68161347a565b9050919050565b600081905092915050565b7f19457468657265756d205369676e6564204d6573736167653a0a000000000000600082015250565b60006134fe601a836134bd565b9150613509826134c8565b601a82019050919050565b600081519050919050565b600061352a82613514565b61353481856134bd565b93506135448185602086016121b0565b80840191505092915050565b600081905092915050565b600061356682612194565b6135708185613550565b93506135808185602086016121b0565b80840191505092915050565b6000613597826134f1565b91506135a3828561351f565b91506135af828461355b565b91508190509392505050565b60006135c682611f5e565b91506135d183611f5e565b92508282019050808211156135e9576135e8612da2565b5b92915050565b7f736c6963655f6f766572666c6f77000000000000000000000000000000000000600082015250565b6000613625600e83612c3e565b9150613630826135ef565b602082019050919050565b6000602082019050818103600083015261365481613618565b9050919050565b7f736c6963655f6f75744f66426f756e6473000000000000000000000000000000600082015250565b6000613691601183612c3e565b915061369c8261365b565b602082019050919050565b600060208201905081810360008301526136c081613684565b9050919050565b7f416363657373436f6e74726f6c3a206163636f756e7420000000000000000000600082015250565b60006136fd6017836134bd565b9150613708826136c7565b601782019050919050565b7f206973206d697373696e6720726f6c6520000000000000000000000000000000600082015250565b60006137496011836134bd565b915061375482613713565b601182019050919050565b600061376a826136f0565b9150613776828561351f565b91506137818261373c565b915061378d828461351f565b91508190509392505050565b60006137a482613514565b6137ae8185612c3e565b93506137be8185602086016121b0565b6137c7816121da565b840191505092915050565b600060208201905081810360008301526137ec8184613799565b905092915050565b7f4e487b7100000000000000000000000000000000000000000000000000000000600052601260045260246000fd5b600061382e82611f5e565b915061383983611f5e565b925082613849576138486137f4565b5b828204905092915050565b600061385f82611f5e565b915061386a83611f5e565b925082820390508181111561388257613881612da2565b5b92915050565b600061389382611f5e565b915061389e83611f5e565b9250826138ae576138ad6137f4565b5b828206905092915050565b6138c2816125ef565b82525050565b60006080820190506138dd600083018761216a565b6138ea60208301866138b9565b6138f7604083018561216a565b613904606083018461216a565b95945050505050565b7f4e487b7100000000000000000000000000000000000000000000000000000000600052602160045260246000fd5b7f45434453413a20696e76616c6964207369676e61747572650000000000000000600082015250565b6000613972601883612c3e565b915061397d8261393c565b602082019050919050565b600060208201905081810360008301526139a181613965565b9050919050565b7f45434453413a20696e76616c6964207369676e6174757265206c656e67746800600082015250565b60006139de601f83612c3e565b91506139e9826139a8565b602082019050919050565b60006020820190508181036000830152613a0d816139d1565b9050919050565b7f45434453413a20696e76616c6964207369676e6174757265202773272076616c60008201527f7565000000000000000000000000000000000000000000000000000000000000602082015250565b6000613a70602283612c3e565b9150613a7b82613a14565b604082019050919050565b60006020820190508181036000830152613a9f81613a63565b9050919050565b7f45434453413a20696e76616c6964207369676e6174757265202776272076616c60008201527f7565000000000000000000000000000000000000000000000000000000000000602082015250565b6000613b02602283612c3e565b9150613b0d82613aa6565b604082019050919050565b60006020820190508181036000830152613b3181613af5565b9050919050565b6000613b4382611f5e565b9150613b4e83611f5e565b9250828202613b5c81611f5e565b91508282048414831517613b7357613b72612da2565b5b5092915050565b6000613b8582611f5e565b915060008203613b9857613b97612da2565b5b600182039050919050565b7f537472696e67733a20686578206c656e67746820696e73756666696369656e74600082015250565b6000613bd9602083612c3e565b9150613be482613ba3565b602082019050919050565b60006020820190508181036000830152613c0881613bcc565b905091905056fea264697066735822122064d1e06b072eb0b09b22c456f0ae7c595d53630b5a85165093b9513769074ae364736f6c63430008110033",
  "linkReferences": {},
  "deployedLinkReferences": {}
}